{
  "contractName": "DogeStaking",
  "abi": [
    {
      "inputs": [
        {
          "internalType": "address",
          "name": "ethDogeAddress",
          "type": "address"
        },
        {
          "internalType": "address",
          "name": "ethUsdt",
          "type": "address"
        },
        {
          "internalType": "address",
          "name": "ethUsdc",
          "type": "address"
        },
        {
          "internalType": "address",
          "name": "_puppy",
          "type": "address"
        }
      ],
      "payable": false,
      "stateMutability": "nonpayable",
      "type": "constructor"
    },
    {
      "anonymous": false,
      "inputs": [
        {
          "indexed": true,
          "internalType": "address",
          "name": "from",
          "type": "address"
        },
        {
          "indexed": true,
          "internalType": "address",
          "name": "_to",
          "type": "address"
        }
      ],
      "name": "OwnershipTransferred",
      "type": "event"
    },
    {
      "anonymous": false,
      "inputs": [],
      "name": "Pause",
      "type": "event"
    },
    {
      "anonymous": false,
      "inputs": [],
      "name": "Unpause",
      "type": "event"
    },
    {
      "constant": true,
      "inputs": [
        {
          "internalType": "address",
          "name": "userAddress",
          "type": "address"
        }
      ],
      "name": "StakingTime",
      "outputs": [
        {
          "internalType": "uint256",
          "name": "",
          "type": "uint256"
        },
        {
          "internalType": "uint256",
          "name": "",
          "type": "uint256"
        },
        {
          "internalType": "uint256",
          "name": "",
          "type": "uint256"
        }
      ],
      "payable": false,
      "stateMutability": "view",
      "type": "function"
    },
    {
      "constant": false,
      "inputs": [],
      "name": "acceptOwnership",
      "outputs": [],
      "payable": false,
      "stateMutability": "nonpayable",
      "type": "function"
    },
    {
      "constant": false,
      "inputs": [],
      "name": "claimEthDogePuppyTokens",
      "outputs": [
        {
          "internalType": "bool",
          "name": "",
          "type": "bool"
        }
      ],
      "payable": false,
      "stateMutability": "nonpayable",
      "type": "function"
    },
    {
      "constant": false,
      "inputs": [],
      "name": "claimEthUsdcTokens",
      "outputs": [
        {
          "internalType": "bool",
          "name": "",
          "type": "bool"
        }
      ],
      "payable": false,
      "stateMutability": "nonpayable",
      "type": "function"
    },
    {
      "constant": false,
      "inputs": [],
      "name": "claimEthUsdtPuppyTokens",
      "outputs": [
        {
          "internalType": "bool",
          "name": "",
          "type": "bool"
        }
      ],
      "payable": false,
      "stateMutability": "nonpayable",
      "type": "function"
    },
    {
      "constant": true,
      "inputs": [
        {
          "internalType": "address",
          "name": "user",
          "type": "address"
        }
      ],
      "name": "claimableDogeETHPuppyTokens",
      "outputs": [
        {
          "internalType": "bool",
          "name": "",
          "type": "bool"
        },
        {
          "internalType": "uint256",
          "name": "",
          "type": "uint256"
        }
      ],
      "payable": false,
      "stateMutability": "view",
      "type": "function"
    },
    {
      "constant": true,
      "inputs": [
        {
          "internalType": "address",
          "name": "user",
          "type": "address"
        }
      ],
      "name": "claimableEthUsdcTokens",
      "outputs": [
        {
          "internalType": "bool",
          "name": "",
          "type": "bool"
        },
        {
          "internalType": "uint256",
          "name": "",
          "type": "uint256"
        }
      ],
      "payable": false,
      "stateMutability": "view",
      "type": "function"
    },
    {
      "constant": true,
      "inputs": [
        {
          "internalType": "address",
          "name": "user",
          "type": "address"
        }
      ],
      "name": "claimableEthUsdtPuppyTokens",
      "outputs": [
        {
          "internalType": "bool",
          "name": "",
          "type": "bool"
        },
        {
          "internalType": "uint256",
          "name": "",
          "type": "uint256"
        }
      ],
      "payable": false,
      "stateMutability": "view",
      "type": "function"
    },
    {
      "constant": true,
      "inputs": [
        {
          "internalType": "address",
          "name": "",
          "type": "address"
        }
      ],
      "name": "dogeEthStaked",
      "outputs": [
        {
          "internalType": "uint256",
          "name": "",
          "type": "uint256"
        }
      ],
      "payable": false,
      "stateMutability": "view",
      "type": "function"
    },
    {
      "constant": true,
      "inputs": [
        {
          "internalType": "address",
          "name": "",
          "type": "address"
        }
      ],
      "name": "dogeEthStakedTime",
      "outputs": [
        {
          "internalType": "uint256",
          "name": "",
          "type": "uint256"
        }
      ],
      "payable": false,
      "stateMutability": "view",
      "type": "function"
    },
    {
      "constant": true,
      "inputs": [
        {
          "internalType": "address",
          "name": "",
          "type": "address"
        }
      ],
      "name": "ethUsdcStaked",
      "outputs": [
        {
          "internalType": "uint256",
          "name": "",
          "type": "uint256"
        }
      ],
      "payable": false,
      "stateMutability": "view",
      "type": "function"
    },
    {
      "constant": true,
      "inputs": [
        {
          "internalType": "address",
          "name": "",
          "type": "address"
        }
      ],
      "name": "ethUsdcStakedTime",
      "outputs": [
        {
          "internalType": "uint256",
          "name": "",
          "type": "uint256"
        }
      ],
      "payable": false,
      "stateMutability": "view",
      "type": "function"
    },
    {
      "constant": true,
      "inputs": [
        {
          "internalType": "address",
          "name": "",
          "type": "address"
        }
      ],
      "name": "ethUsdtStaked",
      "outputs": [
        {
          "internalType": "uint256",
          "name": "",
          "type": "uint256"
        }
      ],
      "payable": false,
      "stateMutability": "view",
      "type": "function"
    },
    {
      "constant": true,
      "inputs": [
        {
          "internalType": "address",
          "name": "",
          "type": "address"
        }
      ],
      "name": "ethUsdtStakedTime",
      "outputs": [
        {
          "internalType": "uint256",
          "name": "",
          "type": "uint256"
        }
      ],
      "payable": false,
      "stateMutability": "view",
      "type": "function"
    },
    {
      "constant": true,
      "inputs": [],
      "name": "newOwner",
      "outputs": [
        {
          "internalType": "address",
          "name": "",
          "type": "address"
        }
      ],
      "payable": false,
      "stateMutability": "view",
      "type": "function"
    },
    {
      "constant": true,
      "inputs": [],
      "name": "owner",
      "outputs": [
        {
          "internalType": "address",
          "name": "",
          "type": "address"
        }
      ],
      "payable": false,
      "stateMutability": "view",
      "type": "function"
    },
    {
      "constant": false,
      "inputs": [],
      "name": "pause",
      "outputs": [],
      "payable": false,
      "stateMutability": "nonpayable",
      "type": "function"
    },
    {
      "constant": true,
      "inputs": [],
      "name": "paused",
      "outputs": [
        {
          "internalType": "bool",
          "name": "",
          "type": "bool"
        }
      ],
      "payable": false,
      "stateMutability": "view",
      "type": "function"
    },
    {
      "constant": true,
      "inputs": [],
      "name": "puppyTokenAddress",
      "outputs": [
        {
          "internalType": "address",
          "name": "",
          "type": "address"
        }
      ],
      "payable": false,
      "stateMutability": "view",
      "type": "function"
    },
    {
      "constant": false,
      "inputs": [
        {
          "internalType": "address",
          "name": "dogeEthAddress",
          "type": "address"
        },
        {
          "internalType": "address",
          "name": "ethUsdt",
          "type": "address"
        },
        {
          "internalType": "address",
          "name": "ethUsdc",
          "type": "address"
        }
      ],
      "name": "setAddress",
      "outputs": [
        {
          "internalType": "bool",
          "name": "",
          "type": "bool"
        }
      ],
      "payable": false,
      "stateMutability": "nonpayable",
      "type": "function"
    },
    {
      "constant": false,
      "inputs": [
        {
          "internalType": "uint256",
          "name": "value1",
          "type": "uint256"
        },
        {
          "internalType": "uint256",
          "name": "value2",
          "type": "uint256"
        },
        {
          "internalType": "uint256",
          "name": "value3",
          "type": "uint256"
        }
      ],
      "name": "setStakingRatio",
      "outputs": [
        {
          "internalType": "bool",
          "name": "",
          "type": "bool"
        }
      ],
      "payable": false,
      "stateMutability": "nonpayable",
      "type": "function"
    },
    {
      "constant": false,
      "inputs": [
        {
          "internalType": "uint256",
          "name": "amount",
          "type": "uint256"
        }
      ],
      "name": "stakeDogeEthTokens",
      "outputs": [
        {
          "internalType": "bool",
          "name": "",
          "type": "bool"
        }
      ],
      "payable": false,
      "stateMutability": "nonpayable",
      "type": "function"
    },
    {
      "constant": false,
      "inputs": [
        {
          "internalType": "uint256",
          "name": "amount",
          "type": "uint256"
        }
      ],
      "name": "stakeEthUsdcTokens",
      "outputs": [
        {
          "internalType": "bool",
          "name": "",
          "type": "bool"
        }
      ],
      "payable": false,
      "stateMutability": "nonpayable",
      "type": "function"
    },
    {
      "constant": false,
      "inputs": [
        {
          "internalType": "uint256",
          "name": "amount",
          "type": "uint256"
        }
      ],
      "name": "stakeEthUsdtTokens",
      "outputs": [
        {
          "internalType": "bool",
          "name": "",
          "type": "bool"
        }
      ],
      "payable": false,
      "stateMutability": "nonpayable",
      "type": "function"
    },
    {
      "constant": true,
      "inputs": [
        {
          "internalType": "address",
          "name": "userAddress",
          "type": "address"
        }
      ],
      "name": "stakedAllTokens",
      "outputs": [
        {
          "internalType": "uint256",
          "name": "",
          "type": "uint256"
        },
        {
          "internalType": "uint256",
          "name": "",
          "type": "uint256"
        },
        {
          "internalType": "uint256",
          "name": "",
          "type": "uint256"
        }
      ],
      "payable": false,
      "stateMutability": "view",
      "type": "function"
    },
    {
      "constant": true,
      "inputs": [],
      "name": "stakingRatioPairOne",
      "outputs": [
        {
          "internalType": "uint256",
          "name": "",
          "type": "uint256"
        }
      ],
      "payable": false,
      "stateMutability": "view",
      "type": "function"
    },
    {
      "constant": true,
      "inputs": [],
      "name": "stakingRatioPairThree",
      "outputs": [
        {
          "internalType": "uint256",
          "name": "",
          "type": "uint256"
        }
      ],
      "payable": false,
      "stateMutability": "view",
      "type": "function"
    },
    {
      "constant": true,
      "inputs": [],
      "name": "stakingRatioPairTwo",
      "outputs": [
        {
          "internalType": "uint256",
          "name": "",
          "type": "uint256"
        }
      ],
      "payable": false,
      "stateMutability": "view",
      "type": "function"
    },
    {
      "constant": false,
      "inputs": [
        {
          "internalType": "address",
          "name": "tokenAddress",
          "type": "address"
        },
        {
          "internalType": "uint256",
          "name": "tokens",
          "type": "uint256"
        }
      ],
      "name": "transferAnyERC20Token",
      "outputs": [
        {
          "internalType": "bool",
          "name": "success",
          "type": "bool"
        }
      ],
      "payable": false,
      "stateMutability": "nonpayable",
      "type": "function"
    },
    {
      "constant": false,
      "inputs": [
        {
          "internalType": "address",
          "name": "_newOwner",
          "type": "address"
        }
      ],
      "name": "transferOwnership",
      "outputs": [],
      "payable": false,
      "stateMutability": "nonpayable",
      "type": "function"
    },
    {
      "constant": true,
      "inputs": [],
      "name": "uniV2DogeEth",
      "outputs": [
        {
          "internalType": "address",
          "name": "",
          "type": "address"
        }
      ],
      "payable": false,
      "stateMutability": "view",
      "type": "function"
    },
    {
      "constant": true,
      "inputs": [],
      "name": "uniV2EthUsdc",
      "outputs": [
        {
          "internalType": "address",
          "name": "",
          "type": "address"
        }
      ],
      "payable": false,
      "stateMutability": "view",
      "type": "function"
    },
    {
      "constant": true,
      "inputs": [],
      "name": "uniV2EthUsdt",
      "outputs": [
        {
          "internalType": "address",
          "name": "",
          "type": "address"
        }
      ],
      "payable": false,
      "stateMutability": "view",
      "type": "function"
    },
    {
      "constant": false,
      "inputs": [],
      "name": "unpause",
      "outputs": [],
      "payable": false,
      "stateMutability": "nonpayable",
      "type": "function"
    }
  ],
  "bytecode": "0x60806040526001805460ff60a01b1916905534801561001d57600080fd5b50604051611ceb380380611ceb833981810160405260a081101561004057600080fd5b508051602082015160408301516060840151608090940151600080546001600160a01b039283166001600160a01b031991821617909155600280549583169582169590951790945560038054938216938516939093179092556004805491831691841691909117905560058054919093169116179055607d600655601e6007819055600855611c17806100d46000396000f3fe608060405234801561001057600080fd5b50600436106102065760003560e01c806379ba50971161011a578063b64d6cdc116100ad578063e43dae101161007c578063e43dae101461051a578063e4cf13b114610543578063f2fde38b1461054b578063fa86349614610571578063fb531fcf1461058e57610206565b8063b64d6cdc146104b8578063bccfc430146104c0578063d4ee1d90146104e6578063dc39d06d146104ee57610206565b8063a82c53aa116100e9578063a82c53aa1461046e578063aa0b639a14610476578063ae3090ba14610493578063b4ee4c96146104b057610206565b806379ba50971461044e5780638456cb59146104565780638709644c1461045e5780638da5cb5b1461046657610206565b8063536725801161019d578063622a1ccb1161016c578063622a1ccb146103ea57806374b4bbf01461041057806377a8a00e1461041857806377ff6b961461042057806378011a641461042857610206565b8063536725801461037357806356d048aa146103b457806357b4dcbe146103da5780635c975abb146103e257610206565b80633be08dab116101d95780633be08dab146102d35780633f4ba83a1461031f5780634580d27b146103295780634cf2e3b81461034f57610206565b806319ea5c511461020b5780631dfda936146102435780632d208cd1146102875780633a3c50b8146102ad575b600080fd5b6102316004803603602081101561022157600080fd5b50356001600160a01b03166105b4565b60408051918252519081900360200190f35b6102696004803603602081101561025957600080fd5b50356001600160a01b03166105c6565b60408051938452602084019290925282820152519081900360600190f35b6102696004803603602081101561029d57600080fd5b50356001600160a01b03166105f8565b610231600480360360208110156102c357600080fd5b50356001600160a01b031661062a565b61030b600480360360608110156102e957600080fd5b506001600160a01b03813581169160208101358216916040909101351661063c565b604080519115158252519081900360200190f35b610327610697565b005b6102316004803603602081101561033f57600080fd5b50356001600160a01b03166106fc565b61035761070e565b604080516001600160a01b039092168252519081900360200190f35b6103996004803603602081101561038957600080fd5b50356001600160a01b031661071d565b60408051921515835260208301919091528051918290030190f35b610231600480360360208110156103ca57600080fd5b50356001600160a01b0316610796565b6103576107a8565b61030b6107b7565b6102316004803603602081101561040057600080fd5b50356001600160a01b03166107c7565b61030b6107d9565b610357610a64565b610231610a73565b6103996004803603602081101561043e57600080fd5b50356001600160a01b0316610a79565b610327610adc565b610327610b57565b610231610bc3565b610357610bc9565b61030b610bd8565b61030b6004803603602081101561048c57600080fd5b5035610e9d565b61030b600480360360208110156104a957600080fd5b503561115e565b6103576113a5565b6102316113b4565b610231600480360360208110156104d657600080fd5b50356001600160a01b03166113ba565b6103576113cc565b61030b6004803603604081101561050457600080fd5b506001600160a01b0381351690602001356113db565b61030b6004803603606081101561053057600080fd5b50803590602081013590604001356114ab565b61030b6114d5565b6103276004803603602081101561056157600080fd5b50356001600160a01b0316611766565b61030b6004803603602081101561058757600080fd5b503561179f565b610399600480360360208110156105a457600080fd5b50356001600160a01b03166119eb565b600b6020526000908152604090205481565b6001600160a01b03166000908152600a6020908152604080832054600c835281842054600e9093529220549192909190565b6001600160a01b0316600090815260096020908152604080832054600b835281842054600d9093529220549192909190565b600c6020526000908152604090205481565b600080546001600160a01b0316331461065457600080fd5b50600280546001600160a01b039485166001600160a01b031991821617909155600380549385169382169390931790925560048054919093169116179055600190565b6000546001600160a01b031633146106ae57600080fd5b600154600160a01b900460ff166106c457600080fd5b6001805460ff60a01b191690556040517f7805862f689e2f13df9f062ff482ad3ad112aca9e0847911ed832e158c525b3390600090a1565b60096020526000908152604090205481565b6004546001600160a01b031681565b6001600160a01b0381166000908152600d602052604081205481901561078a576001600160a01b0383166000908152600d602052604081205461076790606463ffffffff611a4e16565b9050600161078060085483611ab890919063ffffffff16565b9250925050610791565b5060009050805b915091565b600e6020526000908152604090205481565b6005546001600160a01b031681565b600154600160a01b900460ff1681565b600a6020526000908152604090205481565b33600090815260096020526040812054610833576040805162461bcd60e51b81526020600482015260166024820152756e6f74207374616b656420616e792020746f6b656e7360501b604482015290519081900360640190fd5b336000908152600a60205260409020546108569062093a8063ffffffff611b1816565b42116108a5576040805162461bcd60e51b81526020600482015260196024820152780d081a1bdd5c9cc81b9bdd0818dbdb5c1b195d1959081e595d603a1b604482015290519081900360640190fd5b60025433600081815260096020908152604080832054815163a9059cbb60e01b815260048101959095526024850152516001600160a01b039094169363a9059cbb93604480820194918390030190829087803b15801561090457600080fd5b505af1158015610918573d6000803e3d6000fd5b505050506040513d602081101561092e57600080fd5b5051610972576040805162461bcd60e51b815260206004820152600e60248201526d081d1bdad95b9cc8109d5c9b995960921b604482015290519081900360640190fd5b3360009081526009602052604081205461099390606463ffffffff611a4e16565b6005546006549192506001600160a01b03169063633be6489033906109bf90859063ffffffff611ab816565b6040518363ffffffff1660e01b815260040180836001600160a01b03166001600160a01b0316815260200182815260200192505050602060405180830381600087803b158015610a0e57600080fd5b505af1158015610a22573d6000803e3d6000fd5b505050506040513d6020811015610a3857600080fd5b5051610a4357600080fd5b50336000908152600960209081526040808320839055600a90915281205590565b6003546001600160a01b031681565b60065481565b6001600160a01b0381166000908152600b602052604081205481901561078a576001600160a01b0383166000908152600b6020526040812054610ac390606463ffffffff611a4e16565b9050600161078060075483611ab890919063ffffffff16565b6001546001600160a01b03163314610af357600080fd5b600154600080546040516001600160a01b0393841693909116917f8be0079c531659141344cd1fd0a4f28419497f9722a3daafe3b4186f6b6457e091a360018054600080546001600160a01b03199081166001600160a01b03841617909155169055565b6000546001600160a01b03163314610b6e57600080fd5b600154600160a01b900460ff1615610b8557600080fd5b6001805460ff60a01b1916600160a01b1790556040517f6985a02210a168e66602d3235cb6db0e70f92b3ba4d376a33c0f3d9434bff62590600090a1565b60075481565b6000546001600160a01b031681565b336000908152600b6020526040812054610c32576040805162461bcd60e51b81526020600482015260166024820152756e6f74207374616b656420616e792020746f6b656e7360501b604482015290519081900360640190fd5b336000908152600c6020526040902054610c559062093a8063ffffffff611b1816565b4211610ca4576040805162461bcd60e51b81526020600482015260196024820152780d081a1bdd5c9cc81b9bdd0818dbdb5c1b195d1959081e595d603a1b604482015290519081900360640190fd5b336000908152600b6020526040812054610cc590606463ffffffff611a4e16565b600354336000818152600b6020908152604080832054815163a9059cbb60e01b815260048101959095526024850152519495506001600160a01b039093169363a9059cbb936044808501949193918390030190829087803b158015610d2957600080fd5b505af1158015610d3d573d6000803e3d6000fd5b505050506040513d6020811015610d5357600080fd5b5051610d97576040805162461bcd60e51b815260206004820152600e60248201526d081d1bdad95b9cc8109d5c9b995960921b604482015290519081900360640190fd5b6005546007546001600160a01b039091169063633be648903390610dc290859063ffffffff611ab816565b6040518363ffffffff1660e01b815260040180836001600160a01b03166001600160a01b0316815260200182815260200192505050602060405180830381600087803b158015610e1157600080fd5b505af1158015610e25573d6000803e3d6000fd5b505050506040513d6020811015610e3b57600080fd5b5051610e7c576040805162461bcd60e51b815260206004820152600b60248201526a1b5a5b9d0819985a5b195960aa1b604482015290519081900360640190fd5b50336000908152600b60209081526040808320839055600c90915281205590565b600254604080516370a0823160e01b8152336004820152905160009284926001600160a01b03909116916370a0823191602480820192602092909190829003018186803b158015610eed57600080fd5b505afa158015610f01573d6000803e3d6000fd5b505050506040513d6020811015610f1757600080fd5b50511015610f565760405162461bcd60e51b8152600401808060200182810382526024815260200180611b736024913960400191505060405180910390fd5b3360009081526009602052604090205415610fa25760405162461bcd60e51b815260040180806020018281038252602b815260200180611bb8602b913960400191505060405180910390fd5b60025460408051636eb1769f60e11b815233600482015230602482015290516000926001600160a01b03169163dd62ed3e916044808301926020929190829003018186803b158015610ff357600080fd5b505afa158015611007573d6000803e3d6000fd5b505050506040513d602081101561101d57600080fd5b5051336000908152600960209081526040808320879055600a909152902042905590508281101561108a576040805162461bcd60e51b8152602060048201526012602482015271616c6c6f77616e63652069732077726f6e6760701b604482015290519081900360640190fd5b600254604080516323b872dd60e01b81523360048201523060248201526044810186905290516001600160a01b03909216916323b872dd916064808201926020929091908290030181600087803b1580156110e457600080fd5b505af11580156110f8573d6000803e3d6000fd5b505050506040513d602081101561110e57600080fd5b5051611158576040805162461bcd60e51b81526020600482015260146024820152731d1c985b9cd9995c88119c9bdb4819985a5b195960621b604482015290519081900360640190fd5b50919050565b600354604080516370a0823160e01b8152336004820152905160009284926001600160a01b03909116916370a0823191602480820192602092909190829003018186803b1580156111ae57600080fd5b505afa1580156111c2573d6000803e3d6000fd5b505050506040513d60208110156111d857600080fd5b505110156112175760405162461bcd60e51b8152600401808060200182810382526024815260200180611b736024913960400191505060405180910390fd5b336000908152600b6020526040902054156112635760405162461bcd60e51b815260040180806020018281038252602b815260200180611bb8602b913960400191505060405180910390fd5b60035460408051636eb1769f60e11b815233600482015230602482015290516000926001600160a01b03169163dd62ed3e916044808301926020929190829003018186803b1580156112b457600080fd5b505afa1580156112c8573d6000803e3d6000fd5b505050506040513d60208110156112de57600080fd5b5051336000908152600b60209081526040808320879055600c909152902042905590508281101561134b576040805162461bcd60e51b8152602060048201526012602482015271616c6c6f77616e63652069732077726f6e6760701b604482015290519081900360640190fd5b600354604080516323b872dd60e01b81523360048201523060248201526044810186905290516001600160a01b03909216916323b872dd916064808201926020929091908290030181600087803b1580156110e457600080fd5b6002546001600160a01b031681565b60085481565b600d6020526000908152604090205481565b6001546001600160a01b031681565b600154600090600160a01b900460ff16156113f557600080fd5b6000546001600160a01b0316331461140c57600080fd5b6001600160a01b03831661141f57600080fd5b600080546040805163a9059cbb60e01b81526001600160a01b0392831660048201526024810186905290519186169263a9059cbb926044808401936020939083900390910190829087803b15801561147657600080fd5b505af115801561148a573d6000803e3d6000fd5b505050506040513d60208110156114a057600080fd5b505190505b92915050565b600080546001600160a01b031633146114c357600080fd5b50600692909255600755600855600190565b336000908152600d602052604081205461152f576040805162461bcd60e51b81526020600482015260166024820152756e6f74207374616b656420616e792020746f6b656e7360501b604482015290519081900360640190fd5b336000908152600e60205260409020546115529062093a8063ffffffff611b1816565b42116115a1576040805162461bcd60e51b81526020600482015260196024820152780d081a1bdd5c9cc81b9bdd0818dbdb5c1b195d1959081e595d603a1b604482015290519081900360640190fd5b336000908152600d60205260408120546115c290606463ffffffff611a4e16565b60048054336000818152600d6020908152604080832054815163a9059cbb60e01b815296870194909452602486019390935291519495506001600160a01b039092169363a9059cbb93604480820194918390030190829087803b15801561162857600080fd5b505af115801561163c573d6000803e3d6000fd5b505050506040513d602081101561165257600080fd5b5051611696576040805162461bcd60e51b815260206004820152600e60248201526d081d1bdad95b9cc8109d5c9b995960921b604482015290519081900360640190fd5b6005546008546001600160a01b039091169063633be6489033906116c190859063ffffffff611ab816565b6040518363ffffffff1660e01b815260040180836001600160a01b03166001600160a01b0316815260200182815260200192505050602060405180830381600087803b15801561171057600080fd5b505af1158015611724573d6000803e3d6000fd5b505050506040513d602081101561173a57600080fd5b505161174557600080fd5b50336000908152600d60209081526040808320839055600e90915281205590565b6000546001600160a01b0316331461177d57600080fd5b600180546001600160a01b0319166001600160a01b0392909216919091179055565b60048054604080516370a0823160e01b815233938101939093525160009284926001600160a01b0316916370a0823191602480820192602092909190829003018186803b1580156117ef57600080fd5b505afa158015611803573d6000803e3d6000fd5b505050506040513d602081101561181957600080fd5b505110156118585760405162461bcd60e51b8152600401808060200182810382526024815260200180611b736024913960400191505060405180910390fd5b336000908152600d6020526040902054156118a45760405162461bcd60e51b815260040180806020018281038252602b815260200180611bb8602b913960400191505060405180910390fd5b6004805460408051636eb1769f60e11b81523393810193909352306024840152516000926001600160a01b039092169163dd62ed3e916044808301926020929190829003018186803b1580156118f957600080fd5b505afa15801561190d573d6000803e3d6000fd5b505050506040513d602081101561192357600080fd5b5051336000908152600d60209081526040808320879055600e9091529020429055905082811015611990576040805162461bcd60e51b8152602060048201526012602482015271616c6c6f77616e63652069732077726f6e6760701b604482015290519081900360640190fd5b60048054604080516323b872dd60e01b8152339381019390935230602484015260448301869052516001600160a01b03909116916323b872dd9160648083019260209291908290030181600087803b1580156110e457600080fd5b6001600160a01b03811660009081526009602052604081205481901561078a576001600160a01b038316600090815260096020526040812054611a3590606463ffffffff611a4e16565b9050600161078060065483611ab890919063ffffffff16565b6000808211611aa4576040805162461bcd60e51b815260206004820152601a60248201527f536166654d6174683a206469766973696f6e206279207a65726f000000000000604482015290519081900360640190fd5b6000828481611aaf57fe5b04949350505050565b600082611ac7575060006114a5565b82820282848281611ad457fe5b0414611b115760405162461bcd60e51b8152600401808060200182810382526021815260200180611b976021913960400191505060405180910390fd5b9392505050565b600082820183811015611b11576040805162461bcd60e51b815260206004820152601b60248201527f536166654d6174683a206164646974696f6e206f766572666c6f770000000000604482015290519081900360640190fdfe62616c616e6365206f6620612075736572206973206c657373207468656e2076616c7565536166654d6174683a206d756c7469706c69636174696f6e206f766572666c6f77506c6561736520636c61696d2020746f6b656e73206669727374206265666f7265206e6577207374616b65a265627a7a7231582099cbac2bdffabd737e340be020f9ac3e4c608e970c31977330906d7dbd4b8e4c64736f6c63430005100032",
  "source": "\npragma solidity 0.5.16;\n\ncontract ERC20 {\n\n    function transferFrom (address,address, uint256) external returns (bool);\n    function balanceOf(address) public view returns (uint256);\n    function allowance(address, address) external view returns (uint256);\n    function transfer (address, uint256) external returns (bool);\n    function burn (uint256) external returns (bool);\n    function giveRewardsToStakers(address,uint256) external returns(bool); \n\n}\n\ncontract Owned {\n\n    address public owner;\n    address public newOwner;\n\n    event OwnershipTransferred(address indexed from, address indexed _to);\n\n    constructor(address _owner) public {\n        owner = _owner;\n    }\n\n    modifier onlyOwner {\n        require(msg.sender == owner);\n        _;\n    }\n\n    function transferOwnership(address _newOwner) public onlyOwner {\n        newOwner = _newOwner;\n    }\n    function acceptOwnership() public {\n        require(msg.sender == newOwner);\n        emit OwnershipTransferred(owner, newOwner);\n        owner = newOwner;\n        newOwner = address(0);\n    }\n}\n\ncontract Pausable is Owned {\n    event Pause();\n    event Unpause();\n\n    bool public paused = false;\n\n    modifier whenNotPaused() {\n      require(!paused);\n      _;\n    }\n\n    modifier whenPaused() {\n      require(paused);\n      _;\n    }\n\n    function pause() onlyOwner whenNotPaused public {\n      paused = true;\n      emit Pause();\n    }\n\n    function unpause() onlyOwner whenPaused public {\n      paused = false;\n      emit Unpause();\n    }\n}\n\n\n/**\n * @dev Wrappers over Solidity's arithmetic operations with added overflow\n * checks.\n *\n * Arithmetic operations in Solidity wrap on overflow. This can easily result\n * in bugs, because programmers usually assume that an overflow raises an\n * error, which is the standard behavior in high level programming languages.\n * `SafeMath` restores this intuition by reverting the transaction when an\n * operation overflows.\n *\n * Using this library instead of the unchecked operations eliminates an entire\n * class of bugs, so it's recommended to use it always.\n */\nlibrary SafeMath {\n    /**\n     * @dev Returns the addition of two unsigned integers, reverting on\n     * overflow.\n     *\n     * Counterpart to Solidity's `+` operator.\n     *\n     * Requirements:\n     * - Addition cannot overflow.\n     */\n    function add(uint256 a, uint256 b) internal pure returns (uint256) {\n        uint256 c = a + b;\n        require(c >= a, \"SafeMath: addition overflow\");\n\n        return c;\n    }\n\n    /**\n     * @dev Returns the subtraction of two unsigned integers, reverting on\n     * overflow (when the result is negative).\n     *\n     * Counterpart to Solidity's `-` operator.\n     *\n     * Requirements:\n     * - Subtraction cannot overflow.\n     */\n    function sub(uint256 a, uint256 b) internal pure returns (uint256) {\n        require(b <= a, \"SafeMath: subtraction overflow\");\n        uint256 c = a - b;\n\n        return c;\n    }\n\n    /**\n     * @dev Returns the multiplication of two unsigned integers, reverting on\n     * overflow.\n     *\n     * Counterpart to Solidity's `*` operator.\n     *\n     * Requirements:\n     * - Multiplication cannot overflow.\n     */\n    function mul(uint256 a, uint256 b) internal pure returns (uint256) {\n        // Gas optimization: this is cheaper than requiring 'a' not being zero, but the\n        // benefit is lost if 'b' is also tested.\n        // See: https://github.com/OpenZeppelin/openzeppelin-solidity/pull/522\n        if (a == 0) {\n            return 0;\n        }\n\n        uint256 c = a * b;\n        require(c / a == b, \"SafeMath: multiplication overflow\");\n\n        return c;\n    }\n\n    /**\n     * @dev Returns the integer division of two unsigned integers. Reverts on\n     * division by zero. The result is rounded towards zero.\n     *\n     * Counterpart to Solidity's `/` operator. Note: this function uses a\n     * `revert` opcode (which leaves remaining gas untouched) while Solidity\n     * uses an invalid opcode to revert (consuming all remaining gas).\n     *\n     * Requirements:\n     * - The divisor cannot be zero.\n     */\n    function div(uint256 a, uint256 b) internal pure returns (uint256) {\n        // Solidity only automatically asserts when dividing by 0\n        require(b > 0, \"SafeMath: division by zero\");\n        uint256 c = a / b;\n        // assert(a == b * c + a % b); // There is no case in which this doesn't hold\n\n        return c;\n    }\n\n}\n\n\ncontract DogeStaking is Pausable{\nusing SafeMath for uint256;\n\n    address public uniV2DogeEth;\n    address public uniV2EthUsdt;\n    address public uniV2EthUsdc;\n    \n    address public puppyTokenAddress;\n    \n    uint256 public stakingRatioPairOne;\n    uint256 public stakingRatioPairTwo;\n    uint256 public stakingRatioPairThree;\n\n    constructor(address ethDogeAddress, address ethUsdt, address ethUsdc, address _puppy, address owner) public Owned(owner) {\n\n    uniV2DogeEth = ethDogeAddress;\n    uniV2EthUsdt = ethUsdt;\n    uniV2EthUsdc = ethUsdc;\n    \n    puppyTokenAddress = _puppy;\n    stakingRatioPairOne = 125;\n    stakingRatioPairTwo = 30;\n    stakingRatioPairThree = 30;\n    \n\n    }\n\n    function setAddress(address dogeEthAddress, address ethUsdt, address ethUsdc) external onlyOwner returns(bool)  \n    {\n       \n    uniV2DogeEth = dogeEthAddress;\n    uniV2EthUsdt = ethUsdt;\n    uniV2EthUsdc = ethUsdc;\n\n            return true;\n    }\n\n\n    function setStakingRatio(uint256 value1, uint256 value2, uint256 value3) external onlyOwner returns(bool)  \n    {\n       \n        stakingRatioPairOne = value1;\n        stakingRatioPairTwo = value2;\n        stakingRatioPairThree = value3;\n        return true;\n    }\n\n\n\n\n    mapping (address => uint256) public dogeEthStaked;\n    mapping (address => uint256) public dogeEthStakedTime;\n\n    mapping (address => uint256) public ethUsdtStaked;\n    mapping (address => uint256) public ethUsdtStakedTime;\n\n    mapping (address => uint256) public ethUsdcStaked;\n    mapping (address => uint256) public ethUsdcStakedTime;\n\n\n   function stakedAllTokens (address userAddress) public view returns (uint256,uint256,uint256) {\n       \n       uint256 dogeEthStaked = dogeEthStaked[userAddress]; \n       uint256 ethUsdtStaked =  ethUsdtStaked[userAddress];  \n       uint256 ethUsdcStaked = ethUsdcStaked[userAddress];    \n\n       return (dogeEthStaked,ethUsdtStaked,ethUsdcStaked);\n\n   }\n\n\n   function StakingTime (address userAddress) public view returns (uint256,uint256,uint256) {\n       \n       uint256 dogeEthStakedTime = dogeEthStakedTime[userAddress]; \n       uint256 ethUsdtStakedTime = ethUsdtStakedTime[userAddress];  \n       uint256 ethUsdcStakedTime = ethUsdcStakedTime[userAddress];    \n       \n       return (dogeEthStakedTime,ethUsdtStakedTime,ethUsdcStakedTime);\n   }\n\n\n    function stakeDogeEthTokens(uint256 amount) public returns (bool) {\n       \n       require(ERC20(uniV2DogeEth).balanceOf(msg.sender) >= amount,'balance of a user is less then value');\n       require(dogeEthStaked[msg.sender] == 0, \"Please claim  tokens first before new stake\");\n       uint256 checkAllowance = ERC20(uniV2DogeEth).allowance(msg.sender, address(this)); \n       dogeEthStaked[msg.sender] = amount;\n       dogeEthStakedTime[msg.sender] = now;\n       require (checkAllowance >= amount, 'allowance is wrong');\n       require(ERC20(uniV2DogeEth).transferFrom(msg.sender,address(this),amount),'transfer From failed');\n        \n    } \n\n\n    function claimableDogeETHPuppyTokens (address user) public view returns (bool,uint256) {\n        \n        if (dogeEthStaked[user] > 0){\n            \n            \n            uint256 percent = dogeEthStaked[user].div(100);\n            return (true,percent.mul(stakingRatioPairOne));\n            \n            \n        } else {return (false,0);}\n        \n    }\n\n    function claimEthDogePuppyTokens() public returns (bool) {\n       \n        require(dogeEthStaked[msg.sender]>0, \"not staked any  tokens\");\n        require(now > dogeEthStakedTime[msg.sender].add(604800), \"4 hours not completed yet\"); \n        require(ERC20(uniV2DogeEth).transfer(msg.sender,dogeEthStaked[msg.sender]), \" tokens Burned\");\n\n        uint256 percent = dogeEthStaked[msg.sender].div(100);\n        require(ERC20(puppyTokenAddress).giveRewardsToStakers(msg.sender, percent.mul(stakingRatioPairOne)));\n        dogeEthStaked[msg.sender] = 0;\n        dogeEthStakedTime[msg.sender] = 0;    \n        \n    } \n\n\n    function stakeEthUsdtTokens(uint256 amount) public returns (bool) {\n       \n       require(ERC20(uniV2EthUsdt).balanceOf(msg.sender) >= amount,'balance of a user is less then value');\n       require(ethUsdtStaked[msg.sender] == 0, \"Please claim  tokens first before new stake\");\n       uint256 checkAllowance = ERC20(uniV2EthUsdt).allowance(msg.sender, address(this)); \n       ethUsdtStaked[msg.sender] = amount;\n       ethUsdtStakedTime[msg.sender] = now;\n       require (checkAllowance >= amount, 'allowance is wrong');\n       require(ERC20(uniV2EthUsdt).transferFrom(msg.sender,address(this),amount),'transfer From failed');\n        \n    } \n\n    function claimableEthUsdtPuppyTokens (address user) public view returns (bool,uint256) {\n        \n        if (ethUsdtStaked[user] > 0){\n            \n            uint256 percent = ethUsdtStaked[user].div(100);\n            return (true,percent.mul(stakingRatioPairTwo));\n            \n            \n        } else {return (false,0);}\n        \n    }\n\n\n    function claimEthUsdtPuppyTokens() public returns (bool) {\n       \n        require(ethUsdtStaked[msg.sender]>0, \"not staked any  tokens\");\n        require(now > ethUsdtStakedTime[msg.sender].add(604800), \"4 hours not completed yet\"); \n        \n        uint256 percent = ethUsdtStaked[msg.sender].div(100);\n\n        require(ERC20(uniV2EthUsdt).transfer(msg.sender,ethUsdtStaked[msg.sender]), \" tokens Burned\");\n        require(ERC20(puppyTokenAddress).giveRewardsToStakers(msg.sender,percent.mul(stakingRatioPairTwo)), \"mint failed\");\n\n        ethUsdtStaked[msg.sender] = 0;\n        ethUsdtStakedTime[msg.sender] = 0;\n        \n    } \n\n    function stakeEthUsdcTokens(uint256 amount) public returns (bool) {\n       \n       require(ERC20(uniV2EthUsdc).balanceOf(msg.sender) >= amount,'balance of a user is less then value');\n       require(ethUsdcStaked[msg.sender] == 0, \"Please claim  tokens first before new stake\");\n       uint256 checkAllowance = ERC20(uniV2EthUsdc).allowance(msg.sender, address(this)); \n       ethUsdcStaked[msg.sender] = amount;\n       ethUsdcStakedTime[msg.sender] = now;\n       require (checkAllowance >= amount, 'allowance is wrong');\n       require(ERC20(uniV2EthUsdc).transferFrom(msg.sender,address(this),amount),'transfer From failed');\n        \n    } \n\n    function claimableEthUsdcTokens (address user) public view returns (bool,uint256) {\n        \n        if (ethUsdcStaked[user] > 0){\n            \n            uint256 percent = ethUsdcStaked[user].div(100);\n            return (true,percent.mul(stakingRatioPairThree));\n            \n            \n        } else {return (false,0);}\n        \n    }\n\n    function claimEthUsdcTokens() public returns (bool) {\n       \n        require(ethUsdcStaked[msg.sender]>0, \"not staked any  tokens\");\n        require(now > ethUsdcStakedTime[msg.sender].add(604800), \"4 hours not completed yet\"); \n        uint256 percent = ethUsdcStaked[msg.sender].div(100);\n        require(ERC20(uniV2EthUsdc).transfer(msg.sender,ethUsdcStaked[msg.sender]), \" tokens Burned\");\n        require(ERC20(puppyTokenAddress).giveRewardsToStakers(msg.sender,percent.mul(stakingRatioPairThree)));\n\n        ethUsdcStaked[msg.sender] = 0;\n        ethUsdcStakedTime[msg.sender] = 0;\n        \n    } \n\n\n   function transferAnyERC20Token(address tokenAddress, uint tokens) public whenNotPaused onlyOwner returns (bool success) {\n        require(tokenAddress != address(0));\n        return ERC20(tokenAddress).transfer(owner, tokens);\n    }\n    \n}",
  "sourcePath": "/mnt/c/Users/DragonLord/Desktop/dApp/puppy/contracts/puppyStake.sol",
  "compiler": {
    "name": "solc",
    "version": "0.5.16+commit.9c3226ce.Emscripten.clang"
  },
  "schemaVersion": "3.2.3",
  "updatedAt": "2020-10-21T07:39:36.406Z",
  "devdoc": {
    "methods": {}
  },
  "userdoc": {
    "methods": {}
  }
}